S00F00004B6B6F627567692E7372656349
S113000045C0000060C000005EC000005CC000008D
S11300105AC0000058C0000056C0000054C0000080
S113002052C0000050C000004EC000004CC0000090
S11300304AC0000048C0000046C0000044C00000A0
S113004042C0000040C000003EC000003CC00000B0
S11300503AC0000038C0000036C0000034C00000C0
S113006032C0000030C000002EC000002CC00000D0
S11300702AC0000028C0000026C0000024C00000E0
S113008022C0000020C000001EC0000011241FBEBA
S1130090CFEFD0E1DEBFCDBF11E0A0E0B1E0ECE2F4
S11300A0F8E000E00BBF02C007900D92A830B10742
S11300B0D9F721E0A8E0B1E001C01D92AA30B2074F
S11300C0E1F76ED0B1C39CCFBC01990F880B990B9B
S11300D073D261D33ED2DC01CB01BC01A5C008952B
S11300E081E090E0909309018093080180E090E022
S11300F078C0089510920901109208018DE290E0F1
S113010070C008955BD08BD0F5CF08950F931F93E3
S1130110CF93DF93EC01672B51F08091080190910C
S11301200901892B39F0E6DF01E010E005C000E0A9
S113013010E002C000E010E0BE01DD0F880B990B57
S11301403BD22DEC3CEC4CE250E4C2D224D301D29D
S1130150DC01CB0166277727681B790B65D0012B5F
S113016009F0BEDFDF91CF911F910F91089561E0F7
S113017070E0CCCF0895CF93DF93B2DF8EE190E0AF
S113018007C084E190E0A0DF8CE090E0F0DFCE01D6
S1130190EC012197892BA9F7ADDFDF91CF91089569
S11301A0B1DF2FEF8BE792E9215080409040E1F7D7
S11301B000C00000E0DF80E090E0089587B3806233
S11301C087BB88B3806288BB82E88FBD8BE18EBD1C
S11301D087E893E197BD86BD87E791E09BBD8ABD23
S11301E00895BC01990F880B990BE6D12AE737ECE7
S11301F041E350E46DD2CFD220E030E84BEB53E43E
S113020044D1ACD17BBD6ABD88E893E105C0E8E286
S1130210F0E03197F1F701970097C9F708958FEF50
S113022082B98093610008950F931F93CF93DF9356
S1130230CDB7DEB72E970FB6F894DEBF0FBECDBF95
S1130240AC01992324F444275527481B590B9B01DF
S1130250772324F422273327261B370BF9018A013D
S1130260421753070CF489011E861D86FCC01C86A8
S11302701B8623E030E03A872987E5C02D853E853B
S1130280241735070CF062C013B8181619066CF45D
S11302902B853C852370307833239CF4215031091D
S11302A02C6F3F6F2F5F3F4F0CC029853A85237019
S11302B03078332334F4215031092C6F3F6F2F5F92
S11302C03F4F38872F831E821D822F813885220F4E
S11302D0331FD901A050BF4F2C9123FF05C02D819E
S11302E03E8120683E832D832F813885220F331F62
S11302F0D901A050BF4F2C9122FF05C02D813E8112
S113030020623E832D832F813885220F331FD9012C
S1130310A050BF4F2C9121FF05C02D813E81206448
S11303203E832D832F813885220F331FD901A0509E
S1130330BF4F2C9120FF05C02D813E8120613E835B
S11303402D832D813E8133B1232B23B92D853E8509
S11303502E173F070CF065C01092620016161706A0
S11303606CF42B853C852370307833239CF4215026
S113037031092C6F3F6F2F5F3F4F0CC029853A85A1
S113038023703078332334F4215031092C6F3F6FBC
S11303902F5F3F4F3C832B831A8219822B813C8130
S11303A0220F331FD901A050BF4F2C9123FF05C04A
S11303B029813A8121603A8329832B813C81220F50
S11303C0331FD901A050BF4F2C9122FF05C02981B2
S11303D03A8124603A8329832B813C81220F331F85
S11303E0D901A050BF4F2C9121FF05C029813A812A
S11303F020613A8329832B813C81220F331FD90149
S1130400A050BF4F2C9120FF05C029813A81206460
S11304103A83298329813A81A2E6B0E03C91232BD7
S11304202C93AFE1BEE41197F1F700C000002B85D7
S11304303C852F5F3F4F3C872B8729853A85215088
S113044031093A8729872B853C85243031052CF4E2
S113045029853A8533230CF011CF2D853E852F5FF6
S11304603F4F3E872D872D853E85201731070CF49D
S1130470FECE2E960FB6F894DEBF0FBECDBFDF9131
S1130480CF911F910F9108955058BB27AA270ED0E2
S1130490E5C0D6D030F0DBD020F031F49F3F11F42A
S11304A01EF4CBC00EF4E095E7FBC1C0E92FE7D002
S11304B080F3BA17620773078407950718F071F47D
S11304C09EF5FFC00EF4E0950B2EBA2FA02D0B0164
S11304D0B90190010C01CA01A0011124FF27591B85
S11304E099F0593F50F4503E68F11A16F040A22F8B
S11304F0232F342F4427585FF3CF469537952795FC
S1130500A795F0405395C9F77EF41F16BA0B620BFA
S1130510730B840BBAF09150A1F0FF0FBB1F661F41
S1130520771F881FC2F70EC0BA0F621F731F841F84
S113053048F4879577956795B795F7959E3F08F0AA
S1130540B3CF9395880F08F09927EE0F9795879569
S1130550089504D06894B111B5C0089598D088F076
S11305609F5790F0B92F9927B751A0F0D1F0660F9B
S1130570771F881F991F1AF0BA95C9F712C0B130B6
S113058081F09FD0B1E008959CC0672F782F882711
S1130590B85F39F0B93FCCF3869577956795B395F5
S11305A0D9F73EF490958095709561957F4F8F4F64
S11305B09F4F0895E89409C097FB3EF49095809569
S11305C0709561957F4F8F4F9F4F9923A9F0F92F15
S11305D096E9BB279395F695879577956795B79593
S11305E0F111F8CFFAF4BB0F11F460FF1BC06F5F79
S11305F07F4F8F4F9F4F16C0882311F096E911C08B
S1130600772321F09EE8872F762F05C0662371F0AB
S113061096E8862F70E060E02AF09A95660F771FBF
S1130620881FDAF7880F9695879597F9089597F9B3
S11306309F6780E870E060E008959FEF80EC089584
S113064000240A94161617061806090608950024AD
S11306500A9412161306140605060895092E039427
S1130660000C11F4882352F0BB0F40F4BF2B11F49B
S113067060FF04C06F5F7F4F8F4F9F4F089557FDFA
S11306809058440F551F59F05F3F71F04795880FFC
S113069097FB991F61F09F3F79F087950895121693
S11306A013061406551FF2CF4695F1DF08C016163F
S11306B017061806991FF1CF8695710561050894F0
S11306C00895E894BB2766277727CB0197F9089507
S11306D00BD0C4CFB5DF28F0BADF18F0952309F0AA
S11306E0A6CFABCF1124EECFCADFA0F3959FD1F3F1
S11306F0950F50E0551F629FF001729FBB27F00DCC
S1130700B11D639FAA27F00DB11DAA1F649F662720
S1130710B00DA11D661F829F2227B00DA11D621F6F
S1130720739FB00DA11D621F839FA00D611D221F29
S1130730749F3327A00D611D231F849F600D211D0D
S1130740822F762F6A2F11249F5750408AF0E1F0B0
S113075088234AF0EE0FFF1FBB1F661F771F881FF9
S113076091505040A9F79E3F510570F060CFAACF39
S11307705F3FECF3983EDCF3869577956795B795E4
S1130780F795E7959F5FC1F7FE2B880F911D96950E
S1130790879597F908957BDFE0F09E37D8F0963976
S11307A0B8F49E3848F4672F782F8827985FF9CFDC
S11307B086957795679593959539D0F3B62FB17053
S11307C06B0F711D811D20F487957795679593951F
S11307D002C01CC077CF882371F4772321F098508E
S11307E0872B762F07C0662311F499270DC09051EB
S11307F0862B70E060E02AF09A95660F771F881FB9
S1130800DAF7880F9695879597F908959F3F31F009
S1130810915020F4879577956795B795880F911D2A
S10F08209695879597F90895F894FFCFFA
S10B082C0900030006000C00A2
S9030000FC
