S00F00004B6B6F627567692E7372656349
S113000045C0000058C0000056C0000054C00000A5
S113001052C0000050C000004EC000004CC00000A0
S11300204AC0000048C0000046C0000044C00000B0
S113003042C0000040C000003EC000003CC00000C0
S11300403AC0000038C0000036C0000034C00000D0
S113005032C0000030C000002EC000002CC00000E0
S11300602AC0000028C0000026C0000024C00000F0
S113007022C0000020C000001EC000001CC0000000
S11300801AC0000018C0000016C0000011241FBED2
S1130090CFEFD0E1DEBFCDBF11E0A0E0B1E0E2E7F9
S11300A0F7E000E00BBF02C007900D92A830B10743
S11300B0D9F756D05CC3A4CFBC0196C0089580E0A4
S11300C090E06FC008958DE290E06BC0089556D023
S11300D085D0F9CF08950F931F93CF93DF93EC014D
S11300E08B01672B09F0EFDFBE01DD0F880B990B45
S11300F04FD22DEC3CEC4CE250E4D6D216D2DC01CB
S1130100CB0166277727681B790B6ED0012B09F08A
S1130110D6DFDF91CF911F910F91089561E070E0D8
S1130120DACF08950F931F93CF93DF93C8DF85E051
S113013090E0C4EBD0E009C0CE01BEDF8CED9FEFB0
S1130140EDDFD195C195D109C8018C010150110988
S1130150892B91F7B8DFDF91CF911F910F9108950B
S1130160B6DF2FEF8BE792E9215080409040E1F712
S113017000C00000D7DF80E090E0089587B380627C
S113018087BB88B3806288BB82E88FBD8BE18EBD5C
S113019087E893E197BD86BD87E791E09BBD8ABD63
S11301A00895BC01990F880B990BF2D12CE137EC1F
S11301B041E350E479D220E030E84BEB53E451D1F1
S11301C0B9D17BBD6ABD88E893E105C0E8E2F0E0FF
S11301D03197F1F701970097C9F708958FEF82B926
S11301E0809361008ABB08950F931F93CF93DF938D
S11301F0CDB7DEB72E970FB6F894DEBF0FBECDBFD6
S1130200AC01992324F444275527481B590B9B011F
S1130210772324F422273327261B370BF9018A017D
S1130220421753070CF489011BBA1E861D8606C1AA
S11302301C861B8623E030E03A872987EFC013B879
S1130240109262002D853E85241735070CF066C098
S1130250181619066CF42B853C85237030783323EB
S11302609CF4215031092C6F3F6F2F5F3F4F0CC01E
S113027029853A8523703078332334F421503109A9
S11302802C6F3F6F2F5F3F4F38872F831E821D8255
S11302902F813885220F331FD901A050BF4F2C91D5
S11302A023FF05C02D813E8120683E832D832F814D
S11302B03885220F331FD901A050BF4F2C9122FF44
S11302C005C02D813E8120623E832D832F81388598
S11302D0220F331FD901A050BF4F2C9121FF05C01D
S11302E02D813E8120643E832D832F813885220F0A
S11302F0331FD901A050BF4F2C9120FF05C02D8181
S11303003E8120613E832D832D813E813BB3232B8F
S11303102BBB2D813E8133B1232B23B92D853E8503
S11303202E173F070CF068C0161617066CF42B85C1
S11303303C852370307833239CF4215031092C6F91
S11303403F6F2F5F3F4F0CC029853A85237030786B
S1130350332334F4215031092C6F3F6F2F5F3F4F0B
S11303603C832B831A8219822B813C81220F331FF9
S1130370D901A050BF4F2C9123FF05C029813A8198
S113038021603A8329832B813C81220F331FD901B9
S1130390A050BF4F2C9122FF05C029813A812460CF
S11303A03A8329832B813C81220F331FD901A0502A
S11303B0BF4F2C9121FF05C029813A8120613A83E6
S11303C029832B813C81220F331FD901A050BF4FB9
S11303D02C9120FF05C029813A8120643A83298326
S11303E029813A813BB3232B2BBB29813A81A2E695
S11303F0B0E03C91232B2C93AFE7BEE31197F1F7C8
S113040000C000002B853C852F5F3F4F3C872B8726
S113041029853A85215031093A8729872B853C85DE
S1130420243031052CF429853A8533230CF007CF89
S11304302D853E852F5F3F4F3E872D872D853E8539
S1130440201731070CF4F4CE1BBA2E960FB6F8948D
S1130450DEBF0FBECDBFDF91CF911F910F910895E5
S11304605058BB27AA270ED0E5C0D6D030F0DBD039
S113047020F031F49F3F11F41EF4CBC00EF4E0954C
S1130480E7FBC1C0E92FE7D080F3BA17620773070F
S11304908407950718F071F49EF5FFC00EF4E095FB
S11304A00B2EBA2FA02D0B01B90190010C01CA012A
S11304B0A0011124FF27591B99F0593F50F4503ED5
S11304C068F11A16F040A22F232F342F4427585FC7
S11304D0F3CF469537952795A795F0405395C9F7DF
S11304E07EF41F16BA0B620B730B840BBAF0915097
S11304F0A1F0FF0FBB1F661F771F881FC2F70EC036
S1130500BA0F621F731F841F48F487957795679508
S1130510B795F7959E3F08F0B3CF9395880F08F0F1
S11305209927EE0F97958795089504D06894B11193
S1130530B5C0089598D088F09F5790F0B92F9927A7
S1130540B751A0F0D1F0660F771F881F991F1AF0DA
S1130550BA95C9F712C0B13081F09FD0B1E00895C7
S11305609CC0672F782F8827B85F39F0B93FCCF348
S1130570869577956795B395D9F73EF490958095D0
S1130580709561957F4F8F4F9F4F0895E89409C0F0
S113059097FB3EF490958095709561957F4F8F4FB2
S11305A09F4F9923A9F0F92F96E9BB279395F695C8
S11305B0879577956795B795F111F8CFFAF4BB0F46
S11305C011F460FF1BC06F5F7F4F8F4F9F4F16C0AA
S11305D0882311F096E911C0772321F09EE8872F34
S11305E0762F05C0662371F096E8862F70E060E0F0
S11305F02AF09A95660F771F881FDAF7880F969569
S1130600879597F9089597F99F6780E870E060E00F
S113061008959FEF80EC089500240A941616170697
S113062018060906089500240A94121613061406DF
S113063005060895092E0394000C11F4882352F042
S1130640BB0F40F4BF2B11F460FF04C06F5F7F4FFA
S11306508F4F9F4F089557FD9058440F551F59F0E1
S11306605F3F71F04795880F97FB991F61F09F3F9B
S113067079F087950895121613061406551FF2CFC4
S11306804695F1DF08C0161617061806991FF1CF14
S113069086957105610508940895E894BB2766273B
S11306A07727CB0197F908950BD0C4CFB5DF28F095
S11306B0BADF18F0952309F0A6CFABCF1124EECF03
S11306C0CADFA0F3959FD1F3950F50E0551F629FA9
S11306D0F001729FBB27F00DB11D639FAA27F00D97
S11306E0B11DAA1F649F6627B00DA11D661F829FBE
S11306F02227B00DA11D621F739FB00DA11D621FA3
S1130700839FA00D611D221F749F3327A00D611DBF
S1130710231F849F600D211D822F762F6A2F1124A1
S11307209F5750408AF0E1F088234AF0EE0FFF1FF4
S1130730BB1F661F771F881F91505040A9F79E3F2B
S1130740510570F060CFAACF5F3FECF3983EDCF325
S1130750869577956795B795F795E7959F5FC1F768
S1130760FE2B880F911D9695879597F90895F89417
S1050770FFCFB5
S10B07720900030006000C005D
S9030000FC
